:100000000C94DB000C9403010C9403010C940F0876
:100010000C9439080C9463080C9403010C940301AC
:100020000C9403010C9403010C9403010C94030140
:100030000C9403010C9403010C9403010C94030130
:100040000C94260B0C9403010C946D0C0C94BB0CBB
:100050000C9403010C9403010C9403010C94030110
:100060000C9403010C9403017A0689068D0694060C
:100070009A06BE06C706D206DD06E706E706E706CD
:10008000E706E706E706E706E706E706E706E70608
:10009000E706E706E706E706E706E706E706E706F8
:1000A000E706E706E706E7067A06810689068D0673
:1000B00094069A06A106AC06B70600C2010001002C
:1000C000110011000C0000E100000A0025002500CD
:1000D0002100009600001900390039003600127A1C
:1000E00000001F004600460044008070000022000F
:1000F0004D004D004A00004B0000360075007500B1
:100100007200403800004A009C009C009900802545
:1001100000007200EC00EC00E900C0120000E900F1
:10012000DA01DA01D70160090000D701B603B6038E
:10013000B303B0040000B3036E076E076B075802E9
:1001400000006E07DC0EDC0ED80E2C010000DC0E69
:10015000C11DC11DBE1D00000000240027002A0093
:1001600000000000250028002B00000000002300F4
:100170002600290004040404040404040202020208
:10018000020203030303030301020408102040805A
:1001900001020408102001020408102000000007DA
:1001A000000201000003040600000000000000003F
:1001B000A801270EA10111241FBECFEFD8E0DEBF9A
:1001C000CDBF11E0A0E0B1E0EEEAF6E202C005909A
:1001D0000D92A637B107D9F713E0A6E7B1E001C049
:1001E0001D92A235B107E1F711E0C4EBD1E004C0E4
:1001F0002297FE010E944613C03BD107C9F70E9417
:100200007D0E0C944A130C9400001F93FC01992757
:100210008827BC01E89411911032E9F3193010F0ED
:100220001E30C8F31B3251F01D3249F4689406C0E9
:100230000E944B01610F711D811D911D1191105381
:100240001A30B0F33EF490958095709561957F4F8C
:100250008F4F9F4F1F910895FB01DC018D910190FD
:1002600080190110D9F3990B0895FB01DC0101906D
:100270000D920020E1F70895FB01DC014150504050
:1002800048F001900D920020C9F701C01D92415025
:100290005040E0F70895592F482F372F262F660F2B
:1002A000771F881F991F660F771F881F991F620F7E
:1002B000731F841F951F660F771F881F991F08954E
:1002C0008091B501882301F11092B5016091BA01C6
:1002D0007091BB018091BC019091BD010E94A6115B
:1002E00026E53EE04DEE5FE30E945A1220E030E04A
:1002F00048EC52E40E940B1160935001709351013D
:10030000809352019093530108958130910579F4BF
:100310006F5F7F4FA9F486E791E00E94180383E2A4
:1003200092E06AE04BE020E00E94F80A0895892BF1
:1003300039F46F5F7F4F21F483E292E00E947F09DE
:10034000089580E090E06FEF7FEF0E9485010895AF
:1003500081E090E06FEF7FEF0E9485010895AF92FA
:10036000BF92CF92DF92EF92FF920F931F93CF93A2
:10037000DF930DC083E292E00E948809682F86E730
:1003800091E00E943007882311F00E94600183E20F
:1003900092E00E94A9091816190664F3C0E0D0E0A3
:1003A00000E010E081E10E94B70B9093540280932B
:1003B0005302C80FD91F0F5F1F4F0A30110591F765
:1003C000CE016AE070E00E94E012882777FD8095F8
:1003D000982F28E833E140E050E00E94C11220E06D
:1003E00034E040E050E00E941513CA01B90128EE44
:1003F00033E040E050E00E94C1126052714A8740F1
:10040000904025E830E040E050E00E941513309322
:10041000560220935502442737FD4095542FCA01B8
:10042000B9010E94A61120E030E044EB52E40E94A2
:10043000A3107B018C0120E030E040E050E00E94FE
:10044000071188235CF40F2EF0E0EF2EF0E0FF2E72
:10045000F0E00F2FF0E01F2FF02D14C0C801B701FE
:1004600020E23CEB4EEB5CE40E945612181654F46A
:100470000F2EF0E2EF2EFCEBFF2EFEEB0F2FFCE435
:100480001F2FF02DE0924702F0924802009349029C
:1004900010934A02C801B7012091430230914402EF
:1004A00040914502509146020E945612181644F49B
:1004B000E0924302F09244020093450210934602F8
:1004C0000E946E0B0E94A4117B018C016093570265
:1004D000709358028093590290935A02A090470259
:1004E000B0904802C0904902D0904A02C601B501BE
:1004F00020914F023091500240915102509152028E
:100500000E94A31060934F02709350028093510297
:100510009093520260933F02709340028093410295
:100520009093420220E03AEB4BE55AE40E940B1113
:10053000A80197010E945A127B018C01CB01D801BE
:1005400080934B0290934C02A0934D02B0934E02C5
:10055000C601B50120E030E04AE754E40E940B11E7
:1005600060934702709348028093490290934A0235
:1005700080E393E0A701B80122E030E00E948C10F4
:1005800080E393E060E071E00E94A50F4091470294
:10059000509148026091490270914A0280E393E0D1
:1005A00022E030E00E948C1080E393E060E071E094
:1005B0000E94A50F40914302509144026091450270
:1005C0007091460280E393E022E030E00E948C10BC
:1005D00080E393E060E071E00E94A50F409150013C
:1005E00050915101609152017091530180E393E069
:1005F00022E030E00E948F10DF91CF911F910F9188
:10060000FF90EF90DF90CF90BF90AF90089580E380
:1006100093E040E051EE60E070E00E94F60C83E26F
:1006200092E040EC52E160E070E00E948D08089595
:10063000FC011082118213821282148215821682AA
:1006400017821086128611861386148615861686E2
:100650001786118A108A128A138A148A158A168AB2
:10066000108E178A118E128E138E148E158E12A272
:1006700013A214A215A216A217A210AA11AA12AAB6
:1006800013AA14AA15AA16AE17AEEC5BFF4F108280
:10069000118212821382389611921082359610823E
:1006A000118212821382389611921082359610822E
:1006B000118212821382389611921082359610821E
:1006C000118212821382389611921082359610820E
:1006D000118212821382389611921082709682E0F3
:1006E0008193119211921192119211921192119281
:1006F00011921192119211921192119211921192E2
:10070000119211921192119210821182128213820F
:10071000B3971082089540E150E00E943C01089593
:100720000F931F938C014096B8010E9435010E94DF
:100730006E0BF80160A371A382A393A381E085A34C
:1007400084A31F910F9108950F931F938C01FC01B7
:1007500082859385A485B58586839783A087B18795
:100760000E946E0BF801628373838483958381E01A
:10077000818380831F910F9108950F931F938C01A4
:10078000FC0182859385A485B58586839783A087A0
:10079000B1870E946E0BF801628373838483958313
:1007A00081E0818380831F910F9108950F931F93A0
:1007B0008C01FC0186819781A085B185828393831A
:1007C000A483B5830E946E0BF801628773878487C8
:1007D000958781E0818380831F910F9108950F9306
:1007E0001F938C01FC0186819781A085B18582834E
:1007F0009383A483B5830E946E0BF801628773878D
:100800008487958781E0818380831F910F9108956C
:10081000CF93DF93EC01DC011296FC01709687E028
:1008200001900D928150E1F7DE011996FE01779655
:1008300087E001900D928150E1F70E946E0B6E8F60
:100840007F8F88A399A381E089838883DF91CF91EB
:1008500008956F927F928F929F92AF92BF92CF92A4
:10086000DF92EF92FF920F931F93CF93DF934C0190
:100870003B010E940501162F072FF82EE92E24E6D2
:1008800030E040E050E00E94F31280E090E020E889
:1008900036E948E950E00E94C1125B016C01612F0A
:1008A000702F8F2D9E2D24E630E040E050E00E9416
:1008B000F312F3013183208303C00894811C911C3F
:1008C000F4012081822F992787FD9095C0970A9780
:1008D000A0F32E3271F530E8E32E36E9F32E38E935
:1008E000032F112D19C0C801B7012AE030E040E004
:1008F00050E00E94F312C901DA017C018D019E01D2
:10090000442737FD4095542FC801B7010E94C112FA
:10091000A60EB71EC81ED91E0894811C911CF40196
:100920008081C82FDD27C7FDD095E097CA30D1055B
:10093000D0F2C601B50122E0660F771F881F991F0C
:100940002A95D1F76A0D7B1D8C1D9D1D6F5F7F4F12
:100950008F4F9F4F23E030E040E050E00E94F312C1
:10096000F30122833383448355831682DF91CF9131
:100970001F910F91FF90EF90DF90CF90BF90AF90BD
:100980009F908F907F906F9008951F93CF93DF93E8
:10099000EC0110E088818D3211F411E02196CE0136
:1009A0000E94050124E630E040E050E00E94C112C0
:1009B0009B01AC0101C021966881862F992787FD94
:1009C0009095C0970A97B8F36E3249F56981862FE2
:1009D000992787FD9095C0970A9708F58AE06802E5
:1009E000C0011124805E9140AA2797FDA095BA2FDF
:1009F000280F391F4A1F5B1F8A81682F772767FDE1
:100A00007095605370406A30710548F4CB01AA2795
:100A100097FDA095BA2F280F391F4A1F5B1F11237E
:100A200039F050954095309521953F4F4F4F5F4F8E
:100A3000B901CA01DF91CF911F910895AF92BF9282
:100A4000CF92DF92EF92FF920F931F93CF93DF939A
:100A5000EC01CB57DF4F8881C558D040882309F47B
:100A6000D3C0CA57DF4F9881C658D040892F8154D0
:100A7000863038F4292F332727FD3095275330400F
:100A80000CC0292F332727FD30959156963018F446
:100A90002755304002C020533040C957DF4F4881AE
:100AA000C758D040842F8154863030F4842F992742
:100AB00087FD9095C7970BC0842F992787FD909548
:100AC0004156463018F48755904001C0C097E4E085
:100AD000220F331FEA95E1F7982F920FCC57DF4F83
:100AE0008881C458D040981709F07FC0FE01E755AF
:100AF000FF4F80819181A281B3810196A11DB11D1B
:100B000080839183A283B383C856DF4F8881C859FD
:100B1000D040882371F0FE01EF55FF4F8081918115
:100B2000A281B3810196A11DB11D80839183A2830F
:100B3000B383CB56DF4F8881C559D0408823E1F07D
:100B40008130B9F5CE0182960E94EF03CE01C096A6
:100B50000E94D603C856DF4F8881C859D0408823E9
:100B600041F1CE010E940804CE01CE960E94BD0341
:100B7000CE01845B9F4F1BC0CE01C0960E94D6035E
:100B8000C856DF4F8881C859D040882341F0CE0134
:100B90000E940804CE01865A9F4F0E94BD03CE01D9
:100BA00088599F4F0E94A403CE018A589F4F0E94EC
:100BB000BD03FE01E556FF4FC081D1818F0106C004
:100BC000CE010E9490030AA4DBA5C02D209709F452
:100BD00030C1D801ED91FC9166A177A18EA19FA1B2
:100BE0000E942C01009761F324C1FE01EB55FF4FD9
:100BF00080819181A281B3810196A11DB11D808365
:100C00009183A283B38317C1CA56DF4F8881C65927
:100C1000D040882309F047C076E8C72ED12CCC0EEF
:100C2000DD1EC60162E071E00E942C01009739F4DC
:100C3000CB56DF4F81E08883C559D0400EC0C60136
:100C400068E071E00E942C01FE01EB56FF4F009717
:100C500011F4108202C082E080836BE9E62EF12C51
:100C6000EC0EFD1EC756DF4F88819981F7019183F5
:100C70008083570105C08AA59BA5D5018D939C93C0
:100C8000F501C081D181209709F4D5C00EA11FA123
:100C9000C801B6010E942C0197FDEDCFD8C0D70145
:100CA0001D921C92C8C0CB56DF4F3881C559D04029
:100CB000323009F48CC0DE01AA57BF4F2C91222399
:100CC00009F485C0E32FF0E055E0EE0FFF1F5A95C1
:100CD000E1F790E0E82BF92B3197E932F10508F0C4
:100CE00076C0EC5CFF4FCD01EE0FFF1F0590F49135
:100CF000E02D09940E94C5046EAB7FAB88AF99AF1D
:100D000066C0FE01E856FF4F1082213409F05FC033
:100D10003BC0BE01605F7F4F0AC01E8A233509F0C9
:100D200056C081E08E8B53C0BE01695E7F4F0E942A
:100D300029044DC01D8E273509F049C081E08D8FF3
:100D400046C00E94C504C85BDF4F688379838A83ED
:100D50009B83C854D0403BC00E94C504CA5ADF4F91
:100D6000688379838A839B83C655D04030C00E94B4
:100D7000050168A779A78AA79BA729C0FE01E856A5
:100D8000FF4F108221331CF181E0808320C00E943C
:100D90000501CE58DF4F688379838A839B83C257CE
:100DA000D04015C00E94C504C058DF4F68837983C6
:100DB0008A839B83C058D0400AC00E94C504CC5986
:100DC000DF4F688379838A839B83C456D040FE01BA
:100DD000E556FF4F0081118146E8C42ED12CCC0E80
:100DE000DD1E7F01CA56DF4F0AC02817390721F4DC
:100DF000C801B6010E948B03F80102A513A50115D5
:100E00001105C9F0D701ED91FC9166A177A1F80118
:100E100086A197A10E942C01009769F4D8019896A9
:100E20002D913C919997888190E082179307ECF679
:100E300002C081E001C080E0DF91CF911F910F914E
:100E4000FF90EF90DF90CF90BF90AF900895C801D2
:100E5000B6010E942C01181619060CF420CFEBCF16
:100E60001F93CF93DF93EC01162FFC01E356FF4F46
:100E700080819181A281B3810196A11DB11D8083E2
:100E80009183A283B3836432A1F1DE01A956BF4FDF
:100E900065322CF46A3069F06D30C9F50AC06A32E7
:100EA00041F06C32A1F5FE01EC57FF4F808186279F
:100EB00080838C918F3010F090E00AC0FE01E80F23
:100EC000F11DEA57FF4F1082CE010E941E05982F98
:100ED000FE01EA56FF4F80818F5F8083C956DF4F46
:100EE0001882FE01729710821A3251F581E08083D8
:100EF00027C0C956DF4F18821A92629718826196EE
:100F000082E08883609718826396188218C08C915B
:100F10008E3040F4FE01E80FF11DEA57FF4F1083B9
:100F20008F5F8C93CB57DF4F8881C558D040882383
:100F300031F4FE01EC57FF4F80818127808390E0E0
:100F4000892FDF91CF911F9108950F931F93CF9316
:100F5000DF93FC01738D76957170A685B7859585B5
:100F6000772329F08C91892309F454C004C08C9113
:100F7000892309F04FC08389948920E001972FEFDE
:100F80008F3F9207D9F7C589D689A685B78515857C
:100F900060E031E040E050E000E0CE01202F01971A
:100FA0002FEF8F3F9207D9F78C91812311F0632B9C
:100FB00003C0832F80956823330F4F5F5F4F483006
:100FC000510559F78789908D20E001972FEF8F3FCA
:100FD0009207D9F77111609580919D0220919E0230
:100FE00090E001968F73907030E08217930779F04C
:100FF000E0919D02F0E0E35AFD4F608380919D02F5
:1010000090E001968F73907080939D0203C0838D52
:101010008160838FDF91CF911F910F9108951F926F
:101020000F920FB60F9211242F933F934F935F931C
:101030006F937F938F939F93AF93BF93EF93FF93A0
:1010400080915B0290915C02009711F00E94A507CD
:10105000FF91EF91BF91AF919F918F917F916F9190
:101060005F914F913F912F910F900FBE0F901F9066
:1010700018951F920F920FB60F9211242F933F9342
:101080004F935F936F937F938F939F93AF93BF9390
:10109000EF93FF9380915B0290915C02009711F0B7
:1010A0000E94A507FF91EF91BF91AF919F918F9102
:1010B0007F916F915F914F913F912F910F900FBE54
:1010C0000F901F9018951F920F920FB60F92112438
:1010D0002F933F934F935F936F937F938F939F9340
:1010E000AF93BF93EF93FF9380915B0290915C026B
:1010F000009711F00E94A507FF91EF91BF91AF916A
:101100009F918F917F916F915F914F913F912F911F
:101110000F900FBE0F901F901895CF92DF92EF9215
:10112000FF920F931F93CF93DF93EC017A018B0112
:101130001A8E198E188E1F8A1E8A1D8A1C8A1B8A77
:1011400020E030E06901CC0CDD1CC20ED31EB601DC
:10115000660F771F660F771FAB0146545F4FFA018A
:1011600085919591A591B4918E159F05A007B10722
:10117000E9F4FB01E254FF4F859194919C8B8B8B9A
:10118000FB01E054FF4F859194919E8B8D8BFB0169
:10119000EE53FF4F85919491988F8F8BFB01EC5309
:1011A000FF4F859194919A8F898F06C02F5F3F4F93
:1011B0002D30310509F0C6CF8F89988D892B09F420
:1011C00049C04C85463108F03DC0909168004830D8
:1011D00010F484E005C04E3010F082E001C081E0E0
:1011E000892B80936800483028F4EDE6F0E0ADE606
:1011F000B0E00BC04E3028F0ECE6F0E0ACE6B0E03A
:1012000004C0EBE6F0E0ABE6B0E05081483040F4DB
:1012100081E090E002C0880F991F4A95E2F710C064
:10122000242F30E04E3018F42850304002C02E50A9
:10123000304081E090E002C0880F991F2A95E2F7C4
:10124000852B8C93898D9A8D20E001972FEF8F3F0E
:101250009207D9F780915B0290915C028C179D07F1
:1012600081F08B8D8E7F8B8F9FB7F89410929D02AB
:1012700080919D0280939E02D0935C02C0935B029A
:101280009FBFDF91CF911F910F91FF90EF90DF9063
:10129000CF900895FC014485463180F5483028F40C
:1012A000EDE6F0E0ADE6B0E00BC04E3028F4EBE642
:1012B000F0E0ABE6B0E004C0ECE6F0E0ACE6B0E0B5
:1012C0005081483040F481E090E002C0880F991FBF
:1012D0004A95E2F710C0242F30E04E3018F4285021
:1012E000304002C02E50304081E090E002C0880FB4
:1012F000991F2A95E2F7809585238C930895FC0128
:1013000089E591E091838083CF010E944A09089585
:1013100020915B0230915C022817390731F49091DB
:101320009E0280919D02981719F42FEF3FEF0FC096
:10133000E0919E02F0E0E35AFD4F208180919E02F1
:1013400090E001968F73907080939E0230E0C90107
:10135000089520915B0230915C022817390719F03B
:1013600020E030E00EC080919D0220919E0290E02E
:10137000805C9F4F821B910960E470E00E94E01244
:101380009C01C90108950F931F93DC0159968D911B
:101390009C915A97892B49F481E090E013969C9395
:1013A0008E93129720E030E097C00FB7F8945B96C9
:1013B0008C915B975196ED91FC91529750962C91A0
:1013C000509781FF8DC08081822B808359968D91AB
:1013D0009C915A97059620E001972FEF8F3F920737
:1013E000D9F75B968C915B9781FF35C031E040E087
:1013F00050E070E010E0832F90E086239723519611
:10140000ED91FC91529750962C915097892B29F091
:10141000808120952823208303C08081822B8083B4
:1014200059968D919C915A97212F01972FEF8F3FBD
:101430009207D9F7330F4F5F5F4F48305105D9F608
:101440005196ED91FC915297908150968C915097C6
:101450008095892333C031E040E050E070E010E037
:10146000832F90E0862397235196ED91FC9152971C
:1014700050962C915097892B21F08081822B80836C
:1014800004C0808120952823208359968D919C91BA
:101490005A97212F01972FEF8F3F9207D9F7330FDC
:1014A0004F5F5F4F48305105D9F65196ED91FC9151
:1014B0005297808150969C915097892B80830FBFC3
:1014C00059968D919C915A9720E001972FEF8F3F6D
:1014D0009207D9F721E030E0C9011F910F910895DB
:1014E000808120952823208371CF20915B02309149
:1014F0005C022817390749F49FB7F89410929D02AF
:1015000080919D0280939E029FBF089520915B026F
:1015100030915C022817390731F490919E02809136
:101520009D02981719F42FEF3FEF0AC0E0919E0239
:10153000F0E0E35AFD4F8081282F332727FD3095B7
:10154000C90108951F93CF93DF93EC01162F862FC7
:1015500060E00E94D90B8B8D81FD04C0812F61E07A
:101560000E94180C1C87212F30E0C90188579E4F1C
:10157000FC0184918D872C583E4FF9016491E62F30
:10158000F0E0EE0FFF1FE659FE4F859194919F8783
:101590008E87DF91CF911F910895FF920F931F9334
:1015A0008C01F62E862F61E00E94D90B8F2D61E011
:1015B0000E94180C8F2D90E0FC01E857FE4FE4913B
:1015C000D8015096EC9350978C589E4FFC01649133
:1015D000E62FF0E0EE0FFF1FE05AFE4F8591949149
:1015E00052969C938E9351971F910F91FF9008955F
:1015F000FF920F931F938C01F62EFC01138212822F
:1016000088EE93E0A0E0B0E084839583A683B7835F
:1016100089E591E091838083148A138A168A158A5A
:10162000108E178A128E118E838D2170220F8C7F5F
:10163000822B838FC801642F0E94CD0AC8016F2DB1
:101640000E94A20A1F910F91FF9008951F920F927E
:101650000FB60F9211242F933F938F939F93AF93C5
:10166000BF938091A3029091A402A091A502B09192
:10167000A6023091A7020196A11DB11D232F2D5F57
:101680002D3720F02D570196A11DB11D2093A702E3
:101690008093A3029093A402A093A502B093A60204
:1016A00080919F029091A002A091A102B091A2020C
:1016B0000196A11DB11D80939F029093A002A0935B
:1016C000A102B093A202BF91AF919F918F913F91E0
:1016D0002F910F900FBE0F901F9018958FB7F89411
:1016E0002091A3023091A4024091A5025091A6023C
:1016F0008FBFB901CA010895789484B5826084BD12
:1017000084B5816084BD85B5826085BD85B5816005
:1017100085BDEEE6F0E0808181608083E1E8F0E065
:101720001082808182608083808181608083E0E894
:10173000F0E0808181608083E1EBF0E08081846073
:101740008083E0EBF0E0808181608083EAE7F0E075
:1017500080818460808380818260808380818160D9
:1017600080838081806880831092C1000895982FC3
:101770008E3008F09E509770809154018295880FAA
:10178000880F807C892B80937C0080917A00806414
:1017900080937A0080917A0086FDFCCF20917800BA
:1017A00040917900942F80E030E0282B392BC9013B
:1017B0000895CF93DF93482F50E0CA0188579E4F7A
:1017C000FC0134914C585E4FFA018491882369F1F1
:1017D00090E0880F991FFC01EA5AFE4FA591B49141
:1017E000FC01E05AFE4FC591D491662351F42FB706
:1017F000F8948C91932F909589238C9388818923D9
:101800000BC0623061F42FB7F8948C91932F9095B0
:1018100089238C938881832B88832FBF06C09FB731
:10182000F8948C91832B8C939FBFDF91CF91089577
:10183000482F50E0CA0184569E4FFC012491CA01F2
:1018400088579E4FFC0194914C585E4FFA01349199
:10185000332309F440C0222351F1233071F02430A6
:1018600028F42130A1F0223011F514C02630B1F057
:101870002730C1F02430D9F404C0809180008F77E4
:1018800003C0809180008F7D8093800010C084B55C
:101890008F7702C084B58F7D84BD09C08091B00070
:1018A0008F7703C08091B0008F7D8093B000E32FCD
:1018B000F0E0EE0FFF1FE05AFE4FA591B4912FB755
:1018C000F894662321F48C919095892302C08C9121
:1018D000892B8C932FBF089508951F920F920FB6F6
:1018E0000F9211242F933F934F938F939F93EF93D6
:1018F000FF938091C00082FD1DC04091C6002091E1
:10190000E8023091E9022F5F3F4F2F7330708091D2
:10191000EA029091EB022817390771F0E091E80292
:10192000F091E902E855FD4F40833093E90220939E
:10193000E80202C08091C600FF91EF919F918F91C4
:101940004F913F912F910F900FBE0F901F901895C0
:10195000E0913C03F0913D03E05CFF4F8191919158
:1019600020813181821B930B8F739070892B11F032
:101970000E946C0C08951F920F920FB60F921124C3
:101980002F933F938F939F93EF93FF9320912C037B
:1019900030912D0380912E0390912F032817390742
:1019A00031F48091C1008F7D8093C10014C0E0911B
:1019B0002E03F0912F03E451FD4F208180912E03DF
:1019C00090912F0301968F73907090932F038093C3
:1019D0002E032093C600FF91EF919F918F913F912D
:1019E0002F910F900FBE0F901F901895AF92BF923E
:1019F000DF92EF92FF920F931F93CF93DF93EC014F
:101A00007A018B01DD24403081EE580780E06807C1
:101A100080E0780711F0DD24D39491E0A92EB12C59
:101A2000EC89FD89DD2069F0C50108A002C0880F9E
:101A3000991F0A94E2F7808360E079E08DE390E0FB
:101A400005C0108260E874E88EE190E0A80197017B
:101A50000E94F31221503040404050405695479527
:101A60003795279580E12030380720F0DD2011F0F0
:101A7000DD24D6CFE889F9893083EA89FB89208380
:101A800019A2EE89FF89408121E030E0C9010C8C68
:101A900002C0880F991F0A94E2F7482B4083EE8911
:101AA000FF894081C9010D8C02C0880F991F0A94DB
:101AB000E2F7482B4083EE89FF894081C9010E8CF3
:101AC00002C0880F991F0A94E2F7482B4083EE89E1
:101AD000FF8980810F8C02C0220F331F0A94E2F726
:101AE000209528232083DF91CF911F910F91FF90A4
:101AF000EF90DF90BF90AF900895DC011C96ED91C0
:101B0000FC911D97E05CFF4F219131918081918183
:101B1000281B390B2F733070C9010895DC011C9606
:101B2000ED91FC911D97E05CFF4F20813181E054E5
:101B3000F040DF01AE5BBF4F8D919C91119728174C
:101B4000390719F42FEF3FEF07C08D919C91E80FF3
:101B5000F91F8081282F30E0C9010895DC011C960F
:101B6000ED91FC911D97E05CFF4F20813181E054A5
:101B7000F040DF01AE5BBF4F8D919C91119728170C
:101B8000390719F42FEF3FEF10C08D919C911197F9
:101B9000E80FF91F20818D919C91119701968F7309
:101BA000907011969C938E9330E0C9010895DC01EA
:101BB00091968C919197882339F05496ED91FC91F0
:101BC0005597808186FFF9CF91961C920895CF9307
:101BD000DF93EC01EE85FF85E05CFF4F20813181D2
:101BE000E054F0402F5F3F4F2F733070DF01AE5B4A
:101BF000BF4F8D919C91119728173907D1F3E05C65
:101C0000FF4F80819181E054F040E80FF91F60831D
:101C1000EE85FF85E05CFF4F31832083EE89FF89ED
:101C2000208181E090E00F8C02C0880F991F0A94F8
:101C3000E2F7282B208381E089A3EC89FD8980814C
:101C40008064808381E090E0DF91CF9108951092CD
:101C500033031092320388EE93E0A0E0B0E080936B
:101C6000340390933503A0933603B093370389E68A
:101C700091E0909331038093300388EA92E090934F
:101C80003D0380933C038CEE92E090933F0380935E
:101C90003E0385EC90E0909341038093400384ECF5
:101CA00090E0909343038093420380EC90E0909304
:101CB00045038093440381EC90E090934703809325
:101CC000460382EC90E0909349038093480386ECAE
:101CD00090E090934B0380934A0384E080934C03FD
:101CE00083E080934D0387E080934E0385E08093EB
:101CF0004F0381E0809350030895CF93DF930E94B8
:101D00007C0B0E940703C8EADCE00E94AF01209729
:101D1000E1F30E94A80CF9CFCF92DF92EF92FF92ED
:101D20000F931F93CF93DF937C016B018A01C0E077
:101D3000D0E00FC0D6016D916D01D701ED91FC91FE
:101D40000190F081E02DC7010995C80FD91F0150FE
:101D500010400115110571F7CE01DF91CF911F9150
:101D60000F91FF90EF90DF90CF900895EF92FF9248
:101D70000F931F938C01DC01ED91FC910190F08198
:101D8000E02D6DE009957C01D801ED91FC91019069
:101D9000F081E02DC8016AE009959C012E0D3F1DE0
:101DA000C9011F910F91FF90EF900895CF93DF939A
:101DB000EC016115710519F420E030E00FC0DB0182
:101DC0000D900020E9F71197A61BB70BE881F98168
:101DD0000280F381E02DAD0109959C01C901DF91DD
:101DE000CF9108954F925F927F928F929F92AF9280
:101DF000BF92CF92DF92EF92FF920F931F93DF93E8
:101E0000CF93CDB7DEB7A1970FB6F894DEBF0FBE64
:101E1000CDBF2C01742ECB01223008F42AE019A288
:101E200031E2C32ED12CCC0EDD1E822E9924AA24A1
:101E3000BB24672D752FA50194010E94F31279012F
:101E40008A01C801B701A50194010E94C112472D62
:101E5000461B0894C108D1084A3014F4405D01C003
:101E6000495CF6014083E114F1040105110521F0FC
:101E70007E2C5F2DC801DDCFC201B6010E94D60EB7
:101E8000A1960FB6F894DEBF0FBECDBFCF91DF9104
:101E90001F910F91FF90EF90DF90CF90BF90AF9088
:101EA0009F908F907F905F904F900895DC01211557
:101EB000310541F4ED91FC910190F081E02D642F0A
:101EC000099508950E94F20E0895CF92DF92EF9245
:101ED000FF920F931F93CF93DF93EC016A017B0175
:101EE0002115310541F4E881F9810190F081E02D5F
:101EF000642F09951FC02A303105D1F477FF17C030
:101F0000E881F9810190F081E02D6DE209958C0165
:101F100044275527BA014C195D096E097F09CE0186
:101F20002AE00E94F20E9801280F391F04C02AE00F
:101F30000E94F20E9C01C901DF91CF911F910F9178
:101F4000FF90EF90DF90CF9008950E94D60E0895F5
:101F50007F928F929F92AF92BF92CF92DF92EF9239
:101F6000FF920F931F93CF93DF934C017A018B0164
:101F7000722ECB01BA01A80197010E94BD128823DD
:101F800021F0C40162E471E021C0C0E0D0E057015B
:101F90006801E894D7F8C601B5012FEF3FEF4FE78E
:101FA0005FE70E94BD12882351F4C601B5012FEFEF
:101FB0003FEF4FE75FE70E940711181614F0C1E0EA
:101FC000D0E0219739F0C40166E471E00E94D60E9A
:101FD000EC0193C0C801B7012FEF3FEF4FE75FE47B
:101FE0000E945612181654F0C801B7012FEF3FEFA8
:101FF0004FE75FEC0E940711882324F4C4016AE4D0
:1020000071E0E4CFC801B70120E030E040E050E0EB
:102010000E94071187FD03C0C0E0D0E00EC0D401CC
:10202000ED91FC910190F081E02DC4016DE20995E4
:10203000EC0117FB109517F9109520E030E040E017
:102040005FE3DD240BC0CA01B90120E030E040E2CB
:1020500051E40E940B119B01AC01D394D71498F367
:10206000C801B7010E94A3105B016C010E947811A6
:102070007B018C01C401B801A7012AE030E00E9475
:10208000560FC80FD91F772039F0C4016EE471E0F4
:102090000E94D60EC80FD91FC801B7010E94A41113
:1020A0009B01AC01C601B5010E94A21024C020E032
:1020B00030E040E251E40E945A127B018C010E9400
:1020C00073115B016C01CC24B7FCC094DC2CC401FF
:1020D000B601A5012AE030E00E94650FC80FD91FA4
:1020E000C601B5010E94A6119B01AC01C801B70150
:1020F0000E94A2107A947720D1F6CE01DF91CF9181
:102100001F910F91FF90EF90DF90CF90BF90AF9015
:102110009F908F907F9008950E94A80F0895EF924E
:10212000FF920F931F937C010E94A80F8C01C7019F
:102130000E94B60E080F191FC8011F910F91FF9042
:10214000EF9008955058BB27AA270ED075C166D1CD
:1021500030F06BD120F031F49F3F11F41EF45BC1DD
:102160000EF4E095E7FB51C1E92F77D180F3BA1760
:10217000620773078407950718F071F49EF58FC105
:102180000EF4E0950B2EBA2FA02D0B01B901900192
:102190000C01CA01A0011124FF27591B99F0593FD6
:1021A00050F4503E68F11A16F040A22F232F342F1E
:1021B0004427585FF3CF469537952795A795F0406C
:1021C0005395C9F77EF41F16BA0B620B730B840B81
:1021D000BAF09150A1F0FF0FBB1F661F771F881F39
:1021E000C2F70EC0BA0F621F731F841F48F4879591
:1021F00077956795B795F7959E3F08F0B3CF939580
:10220000880F08F09927EE0F979587950895D9D0F4
:1022100008F481E008950CD00FC107D140F0FED042
:1022200030F021F45F3F19F0F0C0511139C1F3C013
:1022300014D198F39923C9F35523B1F3951B550B8A
:10224000BB27AA2762177307840738F09F5F5F4F89
:10225000220F331F441FAA1FA9F333D00E2E3AF0CA
:10226000E0E830D091505040E695001CCAF729D0E4
:10227000FE2F27D0660F771F881FBB1F2617370733
:102280004807AB07B0E809F0BB0B802DBF01FF2763
:1022900093585F4F2AF09E3F510568F0B6C000C1C9
:1022A0005F3FECF3983EDCF3869577956795B7959D
:1022B000F7959F5FC9F7880F911D9695879597F9B8
:1022C0000895E1E0660F771F881FBB1F6217730731
:1022D0008407BA0720F0621B730B840BBA0BEE1F46
:1022E00088F7E095089504D06894B111D9C0089595
:1022F000BCD088F09F5790F0B92F9927B751A0F024
:10230000D1F0660F771F881F991F1AF0BA95C9F789
:1023100012C0B13081F0C3D0B1E00895C0C0672FC2
:10232000782F8827B85F39F0B93FCCF38695779539
:102330006795B395D9F73EF4909580957095619522
:102340007F4F8F4F9F4F0895E89409C097FB3EF44D
:1023500090958095709561957F4F8F4F9F4F9923F2
:10236000A9F0F92F96E9BB279395F6958795779570
:102370006795B795F111F8CFFAF4BB0F11F460FF30
:102380001BC06F5F7F4F8F4F9F4F16C0882311F088
:1023900096E911C0772321F09EE8872F762F05C09C
:1023A000662371F096E8862F70E060E02AF09A9537
:1023B000660F771F881FDAF7880F9695879597F92C
:1023C0000895990F0008550FAA0BE0E8FEEF1616C6
:1023D0001706E807F907C0F012161306E407F50719
:1023E00098F0621B730B840B950B39F40A2661F08D
:1023F000232B242B252B21F408950A2609F4A14030
:10240000A6958FEF811D811D089597F99F6780E83C
:1024100070E060E008959FEF80EC089500240A9436
:102420001616170618060906089500240A941216AF
:102430001306140605060895092E0394000C11F4E2
:10244000882352F0BB0F40F4BF2B11F460FF04C08F
:102450006F5F7F4F8F4F9F4F089557FD9058440FE8
:10246000551F59F05F3F71F04795880F97FB991FF3
:1024700061F09F3F79F087950895121613061406B0
:10248000551FF2CF4695F1DF08C01616170618063D
:10249000991FF1CF86957105610508940895E89418
:1024A000BB2766277727CB0197F908958ADF08F4C1
:1024B0008FEF08950BD0C0CFB1DF28F0B6DF18F052
:1024C000952309F0A2CFA7CF1124EACFC6DFA0F34E
:1024D000959FD1F3950F50E0551F629FF001729FB9
:1024E000BB27F00DB11D639FAA27F00DB11DAA1FD8
:1024F000649F6627B00DA11D661F829F2227B00D25
:10250000A11D621F739FB00DA11D621F839FA00DAF
:10251000611D221F749F3327A00D611D231F849FFF
:10252000600D211D822F762F6A2F11249F57504056
:102530008AF0E1F088234AF0EE0FFF1FBB1F661FF1
:10254000771F881F91505040A9F79E3F510570F0AA
:102550005CCFA6CF5F3FECF3983EDCF38695779592
:102560006795B795F795E7959F5FC1F7FE2B880FA5
:10257000911D9695879597F9089523DF880B990B00
:102580000895629FD001739FF001829FE00DF11DBD
:10259000649FE00DF11D929FF00D839FF00D749FDD
:1025A000F00D659FF00D9927729FB00DE11DF91F89
:1025B000639FB00DE11DF91FBD01CF0111240895E6
:1025C00097FB092E07260AD077FD04D049D006D004
:1025D00000201AF4709561957F4F0895F6F7909555
:1025E00081959F4F0895A1E21A2EAA1BBB1BFD01E6
:1025F0000DC0AA1FBB1FEE1FFF1FA217B307E407E2
:10260000F50720F0A21BB30BE40BF50B661F771F39
:10261000881F991F1A9469F7609570958095909519
:102620009B01AC01BD01CF01089597FB092E052642
:102630000ED057FD04D0D7DF0AD0001C38F45095D7
:102640004095309521953F4F4F4F5F4F0895F6F7D6
:1026500090958095709561957F4F8F4F9F4F08950E
:10266000AA1BBB1B51E107C0AA1FBB1FA617B707B8
:1026700010F0A61BB70B881F991F5A95A9F78095D4
:102680009095BC01CD010895EE0FFF1F0590F491C8
:10269000E02D099411E0C4EBD1E004C0FE010E94DA
:0E26A00046132296C63BD107C9F7F894FFCF28
:1026AE002C004750524D43004750474741004E00C3
:1026BE004E4E45004E4500454E450045004553459E
:1026CE00005345005353450053005353570053577F
:1026DE0000575357005700574E57004E57004E4E57
:1026EE0057006E616E00696E66006F7666002E0092
:1026FE000000A0400100000000C3098C0EA909884B
:10270E0009860A750A00000000E70D8C0E7D0DAEDD
:06271E000D8E0DD70D0029
:00000001FF
